:100000000C94FE010C9445020C9445020C9445029C
:100010000C9445020C9445020C9445020C94450244
:100020000C9445020C9445020C94301C0C94041D55
:100030000C9473170C9445020C9445020C944502E1
:100040000C9445020C9445020C9445020C94450214
:100050000C9445020C94BE170C9445020C94450276
:100060000C9445020C9445020C9445020C944502F4
:100070000C9445020C9445020C9445020C944502E4
:100080000C9445020C9445020C9445020C94EC0827
:100090000C9445020C9445020C9445020C944502C4
:1000A0000C9445020C9445020C944502303000013A
:1000B0000153005F0060006100564400005C005D79
:1000C000005E005742000059005A005B0054450092
:1000D0000062006300584355450000000000000026
:1000E00000000000004A0052004B000100000050D8
:1000F0000000004F00010000004D0051004E0001C3
:1001000000000049004C0001000100000000000058
:1001100000000000000000400041004200430000D9
:10012000003D003E003F00000000003A003B003C64
:1001300000010000000000000000000000000000BE
:100140000000000000000000005300540055002B88
:10015000020000290001000B5D2B000000010001DE
:100160000001002A00000001000100010001000060
:100170000000000000000000000000C25CC35CC57D
:100180005C00000000095D085DC65C01000000C75E
:100190005C0000C95C00000000C85C0000CA5C0094
:1001A00000000000000000000000000000BF5CBB79
:1001B0005CBE5CC05C0000C15CBC5CBD5C0000005F
:1001C000000000000000000000000000000000002F
:1001D000000000000000000000000000000000001F
:1001E000000000000000002A2B2800000000000092
:1001F0000000000000000000000029000000002CAA
:100200001E3420212224342627252E362D37382748
:100210001E1F202122232425263333362E37381F54
:100220000405060708090A0B0C0D0E0F1011121316
:100230001415161718191A1B1C1D2F3130232D35B4
:100240000405060708090A0B0C0D0E0F10111213F6
:100250001415161718191A1B1C1D2F3130354C0098
:10026000000000000000000000000000000000008E
:100270000000007E0F00D4FFFFFFC70000007800E1
:10028000000000000000000000000101020304055E
:1002900006080A0C0F1114181C2024292E33393F8C
:1002A000464C535B626A7179818A929AA2AAB2B96A
:1002B000C1C8CFD5DCE1E7EBF0F4F7FAFCFDFEFFB7
:1002C000FEFDFCFAF7F4F0EBE7E1DCD5CFC8C1B9ED
:1002D000B2AAA29A928A8179716A625B534C463FB4
:1002E00039332E2924201C1814110F0C0A08060576
:1002F00004030201010000000000000000000004EF
:10030000033000000018034E0075006D00410074BA
:10031000007400610063006B0031003600000018BB
:10032000036D006F006E006B0073006F0066006667
:100330000075006E006B0000000403090409023B15
:1003400000020100A0FA09040000010301010009F4
:1003500021110100012240000705810308000A095C
:1003600004010001030000000921110100012232F3
:10037000000705820320000A120110010000000896
:10038000EDFE09A10F000102030105010980A10191
:10039000850319012AB700150126B70095017510CC
:1003A0008100C0050C0901A101850419012AA002E0
:1003B000150126A002950175108100C005010906EE
:1003C000A101050719E029E7150025019508750128
:1003D00081029501750881010507190029FF1500A3
:1003E00026FF009506750881000508190129059565
:1003F0000575019102950175039101C011241FBE7D
:10040000CFEFDAE0DEBFCDBF04B603FE27C0809198
:100410001F0290912002A0912102B0912202873008
:10042000904BA740B04BD1F410921F0210922002C3
:10043000109221021092220214BE84B7877F84BFDB
:100440000FB6F894A8958091600088618093600051
:10045000109260000FBEE0E0F8E3099511E0A0E023
:10046000B1E0EEE1FFE302C005900D92AC37B107B9
:10047000D9F722E0ACE7B1E001C01D92AF31B2077D
:10048000E1F70E9461190C945E1F0C940000559ACC
:10049000209A289A5D9A08950895CF93FB01893098
:1004A0002DE5920781F028F48335910529F1C1E00B
:1004B0001CC08A302DE59207A1F18B309D45B9F71C
:1004C0008281811102C0C0E010C08091010191E0E1
:1004D000892780930101882359F0C0910001C1113F
:1004E000F2CF8FEA90E00E949F038C2FCF91089566
:1004F00081E00E940414E7CFC28180910101CC23E6
:1005000069F0882391F3C091000181E0C827C0936E
:100510000001C111EDCF0E94E313E7CFC1E0C8276E
:10052000E4CF8281882379F28CEA90E00E949F03D5
:10053000CACF81E008950C944D0208950C949D0259
:100540001F93CF93DF9300D000D00F92CDB7DEB7CB
:1005500049835A836B833091920189819A81311149
:100560001DC06623B9F02223A9F00E94D614182FCB
:10057000682F89819A810E947F1469817A81812FF5
:100580000F900F900F900F900F90DF91CF911F91D0
:100590000C9413040E94AD14182FEFCF0E94D614B0
:1005A00069817A81EDCFFC01262F408151816281E2
:1005B000738184810C94A002CF93DF93EC0160E0FF
:1005C0000E94D302BE01DF91CF910C949E02FF9254
:1005D0000F931F93CF93DF93E82FF0E0E152FE4F8C
:1005E000F490C82FC695C695C695D0E0FE01E15996
:1005F000FD4F0491877010E0082E02C015950795F5
:100600000A94E2F701701127C15ADD4FFE01C4912F
:10061000D0E002C0D595C7958A95E2F7C170DD2775
:100620000115110519F081EE0E94A00C209719F018
:1006300086EE0E94A00C8F2D0E94790DCD2B19F013
:1006400086EE0E942A0D012B41F081EEDF91CF91C1
:100650001F910F91FF900C942A0DDF91CF911F9164
:100660000F91FF900895EF92FF920F931F93CF93F6
:10067000DF938C01F62E8AE0E82EF801849188231E
:1006800009F456C0813009F04FC0E8012196FE01FF
:100690008491813051F42196FE011491812F0E94A2
:1006A000A00C812F0E942A0D08C0823099F4E80125
:1006B0002296FE0184910E94A00C8E010F5F1F4FB5
:1006C0008F2D8150D0F2EFE9FFE03197F1F700C0B4
:1006D0000000F7CF833029F4E8012296FE018491CF
:1006E000E1CF843051F7E8012296FE01249190E099
:1006F00080E0FE0131962053330B2A30310548F05B
:100700000197D8F2EFE9FFE03197F1F700C0000060
:10071000F7CFE89EA001E99E500D1124C901840F76
:10072000951F2491EF01E5CF0E94E702E801C5CFB4
:10073000DF91CF911F910F91FF90EF90089560E0AE
:100740000C9433030E941A16811102C00E94C01635
:100750000E945C090C9415060C94170608950C94DD
:10076000AE0381E008950C94B103CF93C82F0E948B
:10077000AF038C2FCF910C94B30308950E94E90F1F
:100780000E94BD032FEF84E39CE021508040904005
:10079000E1F700C000000C94E2170F931F93CF9372
:1007A000DF93EC0161E00E94D3028C01BE010E9444
:1007B0009B02882359F1BE01C8010E944208882388
:1007C00029F1BE01C8010E94DF098823F9F0BE01AA
:1007D000C8010E94200A8823C9F0BE01C8010E94F6
:1007E000430B882399F08A81882339F001158CE521
:1007F000180751F00E3D1C4579F0CE01DF91CF91E5
:100800001F910F910C9499020E94BE0380E0DF912A
:10081000CF911F910F9108950E94C016F7CF90E0DD
:1008200080E008950895972F70E025E0929F600D75
:10083000711D1124FB0199E1899FE00DF11D112427
:10084000EE0FFF1FED54FF4F859194910895FC0129
:10085000EE0FFF1FE158FD4F859194910895CF93BE
:10086000DF930E9413040E943B05EC01811520E5F3
:10087000920708F041C0811530E4930708F0B4C036
:10088000803E910518F5803C910508F09DC0883A9E
:10089000910570F4853A910508F08EC0813091057C
:1008A000F9F00097E9F00497D8F4D0E0C0E018C060
:1008B0008F3B9105D0F7C85AD0E0CC0FDD1FC05F49
:1008C000DE4F0990D881C02DD4640AC081159042B2
:1008D00058F4C11581E0D80718F4C83ED10528F7AF
:1008E000CE01DF91CF910895C11590E3D90708F0AB
:1008F00071C0CE019F706AC0811525E5920758F539
:10090000811534E5930708F09EC0811542E59407F0
:1009100050F4C11581E5D80708F469C0DC2FCC2755
:10092000C16FD06ADDCF982F969596959E01237062
:100930003327C115D34508F077C0C1E0D0E002C02D
:10094000CC0FDD1F2A95E2F720E2929FC00111240F
:10095000C82BD92B67C0C11589E5D807A8F4C115E4
:1009600098E5D90708F074C0C11526E5D20708F04C
:100970009CCF8C2F0E94D205C82FD0E0DC2FCC2733
:10098000CC27DF71D062ACCFC1153AE5D30708F4AC
:1009900064C0CE0190568115904208F086CF8D2F0D
:1009A0008F710E94D20590E0982F882788279F7129
:1009B0009C012C2BE901E6CFC55AD0E0C25CDE4F8A
:1009C000C881D0E0D0648CCF805C91090E9427045C
:1009D000EC0186CFCE019927D3FF03C0EC01D86C80
:1009E0007FCFEC01D06C7CCFDF70D06A79CFCE01A5
:1009F000E4E096958795EA95E1F783702C2F26958C
:100A00002695237090E2299F90011124382B8C2F7A
:100A10008370C1E0D0E002C0CC0FDD1F8A95E2F701
:100A2000C22BD32BDC685CCFC1E0D0E002C0CC0F7E
:100A3000DD1F2A95E2F730E2939FC0011124C82BF5
:100A4000D92BDA684DCFD82FCC27C46FD06A48CFC6
:100A5000DC2FCC27C06FD06A43CF8C2F8F700E94C1
:100A6000D20534E0D695C7953A95E1F7CF709C2F23
:100A7000EC01D06935CF82389105B1F1B0F4813302
:100A8000910509F475C048F48932910509F469C0EB
:100A90008A32910509F473C008958533910509F4EC
:100AA00059C08933910501F10895833E9105A9F15B
:100AB00038F4803E9105F9F0823E910549F10895A0
:100AC000863E9105A9F1873E9105C9F1843E9105C5
:100AD00019F52091110221FF1FC08091100284FDA1
:100AE00014C087EE90E00895209110022370A1F0C9
:100AF00080EE90E008952091100220FD47C03091D3
:100B0000110230FF09C024FF44C090E080E004C01F
:100B10002091100222FDF7CF08952091100222FDAE
:100B20003BC03091110230FDE3CF24FFF5CFEDCF74
:100B30002091100223FFF0CF24FDE7CFD2CF2091E8
:100B4000100223FD2CC03091110231FFEECF84EE54
:100B500090E008952091100225FFDECF89E290E019
:100B600008952091100225FFD7CF85E390E00895E6
:100B70002091100226FFD0CF8AE290E008952091C4
:100B8000100226FFC9CF81E390E0089589E390E049
:100B9000089583EE90E0089582EE90E0089586EE49
:100BA00090E008959091100292FF06C0282F2871BE
:100BB0002830F9F4877F846093FF06C0282F2871BE
:100BC0002831F1F4877E84612091110220FF06C054
:100BD000382F38713830D9F4877F816021FF06C003
:100BE000282F28712831D1F4877E816194FD877E7A
:100BF0000895282F24712430F9F68B7F8860DCCF8C
:100C0000282F2471243101F78B7E8861DDCF382FA6
:100C10003171313019F78E7F8860E0CF282F217134
:100C2000213121F78E7E8861E1CF0C9447020C942C
:100C30004C02E82FF0E0EA5FFD4F808108950895AF
:100C400080EA8A95F1F70895CF93DF93A1E4B1E0AC
:100C500046E451E0C1E0D0E08D91E82FE295EF70DD
:100C6000F0E061A18F709E0101C0220F8A95EAF722
:100C7000922F9095962391A382A1822B82A34A174B
:100C80005B0751F7A6E4B1E061E070E08D91E82FD9
:100C9000E295EF70F0E041A18F709B0101C0220F3F
:100CA0008A95EAF7922F9095942391A382A1822BA3
:100CB00082A381E0AB34B80749F710920102109289
:100CC0000602109202021092070210920302109282
:100CD000080210920402109209021092050210926A
:100CE0000A0285E00E941507DF91CF910C94A203C0
:100CF0006F927F928F929F92AF92BF92CF92DF922C
:100D0000EF92FF920F931F93CF93DF9321E4C22EB4
:100D100021E0D22ED0E0C0E0B12C01E010E036E0BE
:100D2000E32E32E0F32ED6018D916D01E82FE2958E
:100D3000EF70F0E021A18F70A80102C0440F551F91
:100D40008A95E2F7CA01922F982B91A392A18095E0
:100D5000892382A30E942006C8010C2E01C0880F9F
:100D60000A94EAF7A82E382F3095E1E0F2E096E4F5
:100D7000692E91E0792E60E0AF017081D3012D9151
:100D80003D01822E82948FE08822912CD40190968E
:100D90008C9190E02F7002C0959587952A95E2F787
:100DA00080FD40C08A2D872B80833196DA018C919B
:100DB000781361E0EE16FF06F9F6F60131978081AF
:100DC000E82FE295EF70F0E041A18F70980101C02B
:100DD000220F8A95EAF7922F9095942391A382A1EE
:100DE000822B82A3B62A2196C530D10509F09BCF6C
:100DF0002B2D45E066E072E081E092E00E9416074C
:100E00000E94AC038B2DDF91CF911F910F91FF902A
:100E1000EF90DF90CF90BF90AF909F908F907F909A
:100E20006F900895832F8723BFCF0895FF920F936C
:100E30001F93CF93DF93F82E092F162FD72FC42F90
:100E4000222349F081E080937E010E94A3179093B2
:100E50007D0180937C0180917E018823A1F08091A7
:100E60007C0190917D010E94AF17069760F0EF2DF5
:100E7000F02FA12FBD2FCE0FDF2FD11DEC17FD07B7
:100E800041F410927E01DF91CF911F910F91FF905D
:100E9000089581918D93F2CF80910B02869586956E
:100EA0008695089580910B0281FD07C08260809332
:100EB0000B020E944C160C94D708089580910B02E7
:100EC00081FF07C08D7F80930B020E944C160C940B
:100ED000E308089580910B0281FD0C945E070C9449
:100EE000520780910B0286958170089580910201CE
:100EF00008950E941A16811102C00E94C0160E9415
:100F0000481680930B02883420F0877080648093A9
:100F10000B0290910B02892F817090FF04C0892FE2
:100F20008695869586950C94AB0880910B02982F38
:100F3000969596959695983040F49F5F990F990FE6
:100F4000990F8770892B80930B0280910B0281602F
:100F500080930B020E944C1680910B028695869519
:100F600086950C94AB0880910B02982F987F79F0AE
:100F7000885080930B02887F91E009F490E0809183
:100F80000B0290FB80F980930B020E944C1680911B
:100F90000B028695869586950C94AB0880910B0282
:100FA00080FD13C0816080930B02813019F489E0C9
:100FB00080930B0280910B020E944C1680910B02D1
:100FC0008695869586950C94AB08089580910B02C2
:100FD00080FF08C08E7F80930B020E944C1680E039
:100FE0000C94AB08089580910B0280FD0C94E607E9
:100FF0000C94CE0790910B02892F86958695869545
:101000008F5F8F7197708930D8F4880F880F880FA1
:10101000892B80930B0280910B02887F91E009F469
:1010200090E080910B0290FB80F980930B020E946C
:101030004C1680910B028695869586950C94AB088C
:1010400090930B02E8CF893008F088E090910B0272
:101050009770282F220F220F220F922B90930B02B2
:10106000987F21E009F420E090910B0220FB90F999
:1010700090930B020C94AB080E94230880910B0202
:101080000C944C16FC01DB0112968C918823F9F02C
:10109000EB5BFC45E730F105D8F4E05AF04E0C94D8
:1010A000FC1E88E00E943C0880E0089580E0FACFB2
:1010B0000E94B307F9CF0E949507F6CF0E94F3076D
:1010C000F3CF0E94FA07F0CF0E946A07EDCF81E0CC
:1010D00008953E9A4698089546980895CF92DF92D3
:1010E000EF92FF928C3724E1920750F469E070E0B0
:1010F0000E94C61ECB01FF90EF90DF90CF90089525
:10110000B0E0A0E0BC01CD016A50774D8F4F9F4FFA
:10111000982F872F762F662725EF38E241E050E0A1
:101120000E94DA1E69017A01CA01B9010E94B61E45
:101130009B01AC01C701B6010E94B61E672F782F34
:10114000892F99276115710521E08207910591F694
:101150006FEF7FEFCFCFCF93C82F893000F581118C
:101160001FC0809190008F77809390000E946C0840
:101170002C2F30E0AFEFBFEF0E94021FDC01CB014C
:1011800023E0B695A795979587952A95D1F70E9464
:101190006E089093990080939800CF910895C8E0CD
:1011A00080919000806880939000E2CF0895109223
:1011B000800110927F0110928101E1E7F0E08081CF
:1011C000816080830895E1E7F0E080818E7F8083F5
:1011D0000E944C070C94AB081F920F920FB60F920F
:1011E00011242F933F934F935F936F937F938F932C
:1011F0009F93AF93BF93CF93EF93FF930E94760794
:1012000040917F01509180014F5F5F4F94EF899F24
:1012100090011124CA01B9010E94C61E9093800159
:1012200080937F01B901660F672F661F770B719559
:101230000E94C61E6F7780918101823041F4603434
:1012400051F4809171008E7F8093710004C08130D1
:1012500011F46F37B1F3E62FF0E0E158FD4FC49180
:101260000E944C0741E051E0C49F9001C59F300DA2
:10127000112493E0369527959A95E1F7482F429FE0
:10128000C001439F900D11240E946E089093990015
:1012900080939800FF91EF91CF91BF91AF919F9173
:1012A0008F917F916F915F914F913F912F910F900F
:1012B0000FBE0F901F9018950E94690882E88093D6
:1012C000900089E1809391008FEF9FEF90939700BA
:1012D000809396000E9479070E94710781110C94F7
:1012E000D70808950F931F93CF93DF93C62FD42F62
:1012F000022FFC0182818823C9F0609384010E943F
:10130000A317909383018093820180E28C0F883031
:1013100008F050C0C77081E001C0880FCA95EAF795
:10132000DF91CF911F910F910C948C0D109184013E
:10133000161335C080918201909183010E94AF17EE
:10134000883C910560F5C0E2CD0F1D17B9F080E231
:10135000810F883040F4177081E001C0880F1A9522
:10136000EAF70E94930DC83048F481E09D2F9770F2
:1013700001C0880F9A95EAF70E948C0D802F0E9479
:10138000790DC830B8F4D77081E001C0880FDA95C4
:10139000EAF7DF91CF911F910F910C94930D80E2AA
:1013A0008C0F883038F4C77081E001C0880FCA956F
:1013B000EAF7EFCFDF91CF911F910F9108959C0134
:1013C000CB01233F4CE5340731F190F4283DFCE597
:1013D0003F07E9F0293D4CE5340769F1273D3C45DD
:1013E00079F426E241EE61EE0E94720980E00895F0
:1013F000253FFCE53F07B9F090F0263F3C45B9F0AA
:10140000FC0182818823D1F010928401089527E2A3
:1014100045EE65EEE9CF26E241EE60EEE5CF27E24C
:1014200045EE64EEE1CF26E241EE62EEDDCF27E24B
:1014300045EE66EED9CF28E241E0EBCF81E008959A
:10144000CF93DF93EC01FB018281882309F419C15A
:10145000C230FCE5DF07C0F1C6319CE5D90730F0AA
:101460009E012A5F3C452930310570F50E942D16FA
:101470009093110280931002C031ECE5DE0709F46D
:10148000CFC008F05BC0C8308CE5D80709F4B6C0FF
:1014900088F5C430ECE5DE0709F4A8C0C0F4C2301A
:1014A0008CE5D80709F49CC0809110028260C3309B
:1014B000DC4509F498C080911002909111020E94BD
:1014C0003B160E94E90F80E0DF91CF910895809153
:1014D00010028061C630ECE5DE0709F484C080911B
:1014E00010028860C730DC4508F47DC0809110028E
:1014F000806279C0CC308CE5D80709F489C070F4DB
:10150000809110028C60CA30ECE5DE0709F46BC0F4
:1015100008F478C0809110028E7F65C0CE308CE5D3
:10152000D80709F479C0809110028B7FCF30DC4559
:1015300008F459C0809110028F7E55C0CB3FECE576
:10154000DE0709F457C030F5C3318CE5D80709F43C
:101550006FC078F4C131ECE5DE0709F465C0C23133
:10156000DC4509F0A8CF0E94E90F809110028F7727
:101570003AC0C5318CE5D80709F462C008F476C0DA
:10158000809111028160CA3FDC4509F094CF8093BD
:10159000110291CFCF3FFCE5DF0709F44DC088F47D
:1015A000809111028D7FCD3F9CE5D90781F3809119
:1015B00011028E7FCE3FDC4550F380911102836093
:1015C000E6CFC130FDE5DF0709F459C008F444C097
:1015D00080E0C230DD4509F06ECF0E94C2166BCFAD
:1015E0008091100281608093100265CF809110027B
:1015F0008460F9CF809111028260C9CF809110027E
:101600008064F1CF0E94E90F809110028068EBCFD7
:10161000809110028D7FE7CF80911002877FE3CF0A
:10162000809110028F7DDFCF809110028F7BDBCF06
:1016300080911002837FD7CF809111028C7FA7CF3A
:101640008091100282FB992790F921E0922790FB6C
:1016500082F990FB83F9C7CF80911102982F909562
:1016600091708E7F892B90FB81F991CF0E94E90FB9
:1016700090911002892F97FB87F98058B4CF81E0B1
:10168000ACCF81E021CFCF93DF93EB0186319C4536
:1016900011F50E946B159A81992399F08A7A91E04D
:1016A00009F490E090938501811109C089E20E94BC
:1016B00046150E94B71580E0DF91CF91089585E32C
:1016C000F6CF80918501811104C089E20E944D15F9
:1016D000F0CF85E3FBCF81E0EFCF90938B01809338
:1016E0008A010895E0918A01F0918B01309721F0F1
:1016F0000190F081E02D099480E00895E0918A0145
:10170000F0918B01309721F00280F381E02D099454
:10171000089520918801309189012817390771F0C7
:101720009093890180938801E0918A01F0918B0167
:10173000309721F00680F781E02D099408952091DB
:101740008601309187012817390771F0909387013E
:1017500080938601E0918A01F0918B01309721F00E
:101760000084F185E02D0994089585B7806885BFD0
:1017700085B7806885BF0895089508950C94BC0BC3
:1017800008950C94C00B0E94B50B0E94BD0B0C94E5
:10179000BE0B81E008950C94C90B0E949A170E9419
:1017A00024060E94F3170E9479070C94C10BAF9294
:1017B000BF92CF92DF92EF92FF920F931F93CF933E
:1017C000DF93CDB7DEB72A970FB6F894DEBF0FBE12
:1017D000CDBF0E9478060E94CB0B882309F45FC01E
:1017E0008DE8A82E81E0B82E10E000E0C02E802FFA
:1017F0000E941906E82EF501D1905F01D81609F470
:1018000048C08091F40181FD0E941F0680E0FF2402
:10181000F394DE249D2D9F21B9F18E83CF82EF209A
:1018200081E009F480E088870E94A3178160782F07
:101830009A8789874E815F8168858A850E94710CAD
:10184000F801E357FE4F8081F826F0820E94D60807
:101850000E94720B90918C01891791F10E94720B7A
:1018600080938C012A960FB6F894DEBF0FBECDBFD1
:10187000DF91CF911F910F91FF90EF90DF90CF906C
:10188000BF90AF900C94B5038F5FFF0C853009F0CB
:10189000C1CF0F5F1F4F0530110509F0A7CF8FEFA4
:1018A00089838A831B820E94A3178160782F9D837E
:1018B0008C8349815A816B818D810E94710CC6CFC6
:1018C0002A960FB6F894DEBF0FBECDBFDF91CF9141
:1018D0001F910F91FF90EF90DF90CF90BF90AF904E
:1018E0000895CF93DF93CDB7DEB72B970FB6F8945B
:1018F000DEBF0FBECDBF4F83588769877A878B873E
:101900001E821D8285E0FE013796DE011196019050
:101910000D928A95E1F749815A816B817C818D8195
:101920009E812B960FB6F894DEBF0FBECDBFDF9120
:10193000CF910C945F12FC01808191810C94181559
:10194000CF93C82F882309F483C08238C1F40E9442
:10195000720B81FD7DC089E30E9446150E94B71578
:101960002FEF81EE94E0215080409040E1F700C0DD
:10197000000089E30E944D15CF910C94B715833870
:10198000A1F40E94720B80FD63C083E50E9446159E
:101990000E94B7152FEF81EE94E0215080409040D7
:1019A000E1F700C0000083E5E5CF8438A1F40E9490
:1019B000720B82FD4DC087E40E9446150E94B71548
:1019C0002FEF81EE94E0215080409040E1F700C07D
:1019D000000087E4CFCF8CEF8C0F813A90F46C2F0E
:1019E00080910301909104010E94D916882329F067
:1019F0008C2F0E944D150E94B7158C2F0E94461502
:101A0000BBCF80E28C0F883048F4C77081E001C002
:101A1000880FCA95EAF70E946E15AECFEBE5EC0F82
:101A2000E33040F4F0E0E758FE4F808190E0CF9142
:101A30000C94890BC85AC73158F4EC2FF0E0EE0F24
:101A4000FF1FE55BFE4F80819181CF910C949F0B2E
:101A5000CF910895882309F44BC0823871F40E9415
:101A6000720B81FF45C089E30E9446150E94B7159D
:101A700089E30E944D150C94B715833859F40E94E0
:101A8000720B80FF35C083E50E9446150E94B71592
:101A900083E5EFCF843859F40E94720B82FF28C08F
:101AA00087E40E9446150E94B71587E4E2CF9CEFB9
:101AB000980F913AF0F290E2980F983050F48770B6
:101AC00091E001C0990F8A95EAF7892F0E94741559
:101AD000D2CF9BE5980F933020F490E080E00C94F7
:101AE000890B885A873120F490E080E00C949F0B9A
:101AF0000895CF93C82F0E94A00CC93349F42FEF4B
:101B000087EE93E0215080409040E1F700C0000054
:101B10008C2FCF910C942A0D882321F00E946E15F2
:101B20000C94B7150895882321F00E9474150C9425
:101B3000B7150895BF92CF92DF92EF92FF920F9365
:101B40001F93CF93DF936C01D62FC72FFC01058124
:101B500002950F70128111110E948B150E9464155D
:101B6000E82E882371F01123B1F080E28D0F8830C8
:101B700090F082E00E9402160E94641591E0E82E27
:101B8000E926BC2EB2949FE0B922EB2DF0E0E95992
:101B9000F04E0C94FC1EE12CF4CF0C2F0F70C07F84
:101BA00011F00295007F1123A9F0002359F080E283
:101BB0008D0F883010F0D11109C0802F0E946E1552
:101BC0000E94B7158D2F0E94A00C14C0802F0E9478
:101BD0007E15F6CF8D2F0E942A0D002359F080E24A
:101BE0008D0F883010F0D1112CC0802F0E947415F9
:101BF0000E94B7152B2D2850330B2430310520F4CB
:101C00000E94720B0E94B503EE2009F493C10E945A
:101C1000601580FD8FC1F60112820E945A150E9444
:101C2000E313C6010E94BB0F0E945A15DF91CF91AA
:101C30001F910F91FF90EF90DF90CF90BF900C9489
:101C40000414802F0E948415D3CFFC2FFF70FF2E29
:101C5000C07FC03219F0F29480EFF822DD2369F0E2
:101C6000D13049F1112391F1002351F1F601858121
:101C700080FFA8CF8F70858323C0112381F00111CD
:101C800006C00E949E158F290E948C0DB3CF013093
:101C9000C1F70E949E158F290E94A415ABCF011198
:101CA00006C00E94AD158F2D0E94930DA3CF013069
:101CB00009F4A0CFF6CF112329F0063008F09ACF0F
:101CC0008F2DE2CF053008F095CFEDCF002359F3EB
:101CD000D93349F4FFEF27EE33E0F1502040304094
:101CE000E1F700C000008D2F0E942A0D83CF8C2FBA
:101CF00086958695837069F0813009F07BCF8D2FB2
:101D00009C2F9370111102C090E080E00E949F0B05
:101D100071CF8D2F9C2F9370111102C090E080E045
:101D20000E94890B67CF8C2F837009F041C011117D
:101D300061CF4D2F429546954770440F440F0D2FAC
:101D40000F7010E030E020E0042E04C0000F111FDF
:101D5000221F331F0A94D2F760E070E0CB01D4FF5A
:101D60000FC06FE070E080E090E004C0660F771F66
:101D7000881F991F4A95D2F7609570958095909528
:101D8000C695C695C370602B712B822B932BC230E6
:101D900049F058F4C13019F00E9495132BCF0E94DE
:101DA000831328CF0E94A71325CF0E94811322CF2F
:101DB0008695112311F08C2F8170882309F41ACF96
:101DC0004D2F429546954770440F440F0D2F0F70CD
:101DD00010E030E020E0042E04C0000F111F221F8D
:101DE000331F0A94D2F760E070E0CB01D4FF0FC03C
:101DF0006FE070E080E090E004C0660F771F881FFE
:101E0000991F4A95D2F76095709580959095C695E3
:101E1000C695C370602B712B822B932BC23049F077
:101E200058F4C13019F00E945A14E4CE0E944814AC
:101E3000E1CE0E946C14DECE0E94BD13DBCECF70CB
:101E4000112329F08C2F0E94E3138D2F1DCF8D2F8E
:101E50000E94930D8C2F0E940414CCCED23F89F1A6
:101E600060F4D03FC9F0D13F29F1112309F442C0F9
:101E70000111A8CE8C2F8F7121C0D33F39F1D43FEF
:101E8000A1F7112369F1CF718C2F0E94E31363E056
:101E90008C2F0E94ED15AECE112341F0053008F0D5
:101EA000A9CE8C2F8F710E942714A4CE063008F083
:101EB000A1CEF7CF8C2F8F71112369F20E94E3130B
:101EC00099CE8C2F8F711123C9F3C5CF112329F01F
:101ED0008C2F8F710E94CE138DCE0E94C9138ACE93
:101EE00081E00E940216023008F484CE82E00E9453
:101EF000021680CE002359F0D93309F0F4CE8FEFCB
:101F000097EEE3E081509040E040E1F7EACE8C2F7D
:101F10008F71A1CF4C2F4F706D2FC6010E940F04FF
:101F20000E94F91267CE4C2F4F706D2FC6010E9490
:101F3000120460CEDF91CF911F910F91FF90EF902F
:101F4000DF90CF90BF9008950F931F93CF93DF93AF
:101F5000EC01688179818A810E9422158C010E949E
:101F60007E140E948013B801CE01DF91CF911F91A2
:101F70000F910C949A0DCF93DF93EC018B819C8190
:101F8000892B29F08881998189238F3F19F4DF916A
:101F9000CF910895CE010E94CD038823C1F3CE01D5
:101FA0000E94A40FCE01DF91CF910C94DC020E941D
:101FB0008B150E949B150E94B71590E080E00E944F
:101FC000890B90E080E00C949F0B0E9454150C94B8
:101FD000D70F0E947B150C94E50FE92FE295EF7067
:101FE000E250EE3070F4F0E0E958F04E0C94FC1E34
:101FF000803F19F020F4883E20F481E00895843F6A
:10200000E1F380E00895883EC0F3813FD1F7F5CF3A
:1020100093FB882780F908950E9418150C94ED0F02
:10202000CF93DF9300D000D00F92CDB7DEB70F90E3
:102030000F900F900F900F90DF91CF910895CF9355
:10204000DF9300D000D000D0CDB7DEB726960FB614
:10205000F894DEBF0FBECDBFDF91CF9108951F93DF
:10206000CF93DF93C091930116E0809194018C137C
:1020700004C0DF91CF911F910895D0E01C9FF00123
:102080001D9FF00D1124EB56FE4F4081518162815E
:102090007381848195810E941F102196C770E5CFBE
:1020A0004091C5015091C6016091C7017091C8016E
:1020B0008091C9019091CA010C941F101F93CF9376
:1020C000DF938091CA01807FA9F48091C7018823A2
:1020D00089F080919301C09194016091C501709144
:1020E000C601A091C801B091C901D62FD72316E02F
:1020F000C81304C0DF91CF911F91089590E010970D
:1021000011F0DF3F19F401968770F2CF189F90010C
:10211000199F300D1124F901EB56FE4F41814713F1
:10212000F2CF40814613EFCF42814111ECCF438182
:1021300054814A1B5B0B483C510528F78091CA012A
:102140008F7080618093CA01F901E656FE4F80814D
:102150008F708061808385EC91E00E94BB0FDF91DE
:10216000CF911F910C942F10AF92BF92CF92DF921C
:10217000EF92FF920F931F93CF93DF93CDB7DEB70C
:1021800061970FB6F894DEBF0FBECDBF8C0185E01E
:10219000F801DE011D9601900D928A95E1F7F80194
:1021A00040815181E28085ECC82E81E0D82E60917B
:1021B000C8017091C9016115710509F461C190915F
:1021C000C5012091C601892F82238F3F09F458C190
:1021D000A380B480F090C701F501E61BF70BFF2048
:1021E00009F4FCC08091CA01382F307FE83CF1052A
:1021F00008F0B2C0311179C0FE2C251323C094130E
:1022000021C0E1101FC08F7080618093CA010E94BD
:102210005010C6010E94BB0F8091CA01F80185834E
:102220008F2D61960FB6F894DEBF0FBECDBFDF9144
:10223000CF911F910F91FF90EF90DF90CF90BF90C3
:10224000AF900895AB2829F0842F85238F3F09F0A4
:1022500033C180E0F82FF170DF2E80FF3CC0809109
:1022600093012091940136E0821315C04D875E875B
:102270008D859E850E941815292F22952F7022305A
:10228000F0F0243018F59F70F1F0F8019581907FFF
:10229000D1F4D12C1EC090E0389FF001399FF00D91
:1022A0001124EB56FE4F6181651306C060816413F3
:1022B00003C062816E110FC001968770D5CF9F70E9
:1022C00011F0882331F3805E883018F3C8010E9432
:1022D000BB0FFD2CA5CFEE2009F4A2CF8091CA013F
:1022E00081608093CA01F12C9BCF251306C0941303
:1022F00004C0F801EE2009F48DC04D875E878D85FE
:102300009E850E940C10882319F1EE2009F180911E
:10231000CA01803270F02091C5013091C601388722
:102320002F831986BB86AA868C87CE0107960E94CA
:10233000BB0F86E0F801A5ECB1E001900D928A9503
:10234000E1F70E945E100E945010FF24F39468CFC2
:10235000C8010E94BB0FF9CF311113C07A2DB98A81
:10236000A88A6E2D89890E94101085EC91E00E9448
:10237000BB0F86E0F60111928A95E9F70E94501092
:10238000B2CF25130FC094130DC0E1100BC0F8019C
:102390008583C8010E94BB0F86E0F60111928A95E1
:1023A000E9F73ECF4D875E878D859E850E940C1094
:1023B000882371F2EE2061F28091CA01803208F424
:1023C000B8CF2091C5013091C6013A8329831B8281
:1023D000BD82AC828E83CE010196A9CFE83CF10587
:1023E00008F041C0FE2CEE2009F4B2CF25132AC01C
:1023F000941328C08091CA0180FD1BC0982F907F44
:10240000C1F0F8018583903F31F0982F907F905F65
:102410008F70892B8583C8010E94BB0F86E0F8016D
:10242000A5ECB1E001900D928A95E1F70E94501061
:10243000F7CE86E0F801A5ECB1E001900D928A9507
:10244000E1F7EECE4D875E878D859E850E940C104C
:1024500081116FCF8091CA0181608093CA01C80148
:102460000E94BB0FDDCE7A2DB98AA88A6E2D89898C
:102470000E94101086E0F60111928A95E9F7D6CFF6
:10248000EE2009F465CF4D875E878D859E850E947D
:102490000C10F82E882309F45BCF86E0F801A5EC38
:1024A000B1E001900D928A95E1F785EC91E00E94F0
:1024B0009B0C0E945E10BACF81E08E25CBCE1F937D
:1024C000CF93DF93CDB7DEB72C970FB6F894DEBF6E
:1024D0000FBECDBF4F83588769877A878B879C87CC
:1024E000CE0107960E94B410882369F08A859B85E7
:1024F000892B39F04F815885842F85238F3F09F030
:1025000071C016E05FC086E0FE013796DE011196CD
:1025100001900D928A95E1F78A859B85892B89F335
:1025200088859F8189238F3F61F32091940130E05A
:10253000C9010196877099274091930148171906A0
:1025400071F40E94E90F109294011092930186E0B9
:10255000E5ECF1E0DF011D928A95E9F7D2CF96E034
:10256000929FD001939FB00D1124AB56BE4FFE0138
:10257000319601900D929A95E1F7809394010E9413
:102580002F10BFCF819FC00111248B569E4F0E94F8
:10259000B4108823E9F0E09193011E9FF00111240B
:1025A000EB56FE4F40815181628173818481958118
:1025B0000E941F108091930190E0019687709927E7
:1025C0008093930180919301909194018913DACFC4
:1025D0002C960FB6F894DEBF0FBECDBFDF91CF9122
:1025E0001F91089569857A858B859C850E941F10AF
:1025F00088CFEF92FF920F931F93CF93DF938C01BD
:10260000892B81F0F12CEE24E394E8012196F80166
:102610008491843770F4843008F05FC08130B1F069
:102620008230A1F1DF91CF911F910F91FF90EF9038
:102630000895853709F44CC008F43DC09CE7980F15
:10264000903780F78F770E942A0D49C00E5F1F4F89
:10265000FE01849190E2980F983060F48770FE2D0F
:1026600001C0FF0F8A95EAF78F2F0E948E150E94F6
:10267000B71502C00E94A00C8F2D815030F2EFE9F7
:10268000FFE03197F1F700C00000F7CF0E5F1F4F5A
:10269000FE01849190E2980F983050F48770FE2DDF
:1026A00001C0FF0F8A95EAF78F2F0E949415DFCFA4
:1026B0000E942A0DE1CF0E5F1F4FFE01C491C15051
:1026C000D8F28FE99FE00197F1F700C00000F7CF43
:1026D0000E5F1F4FFE01F490CFCF0E94A00C8E0121
:1026E000CBCF08950C9471130E9472136093E30191
:1026F0007093E4018093E5019093E6010C94D70F69
:1027000008950C9474130F931F930091E30110919B
:10271000E4012091E5013091E601602B712B822BC1
:10272000932B1F910F910C9474130F931F9300918F
:10273000E3011091E4012091E5013091E60160236D
:102740007123822393231F910F910C9474130F9381
:102750001F930091E3011091E4012091E501309174
:10276000E60160277127822793271F910F910C9410
:1027700074130C9471130C94B9130E94BB136093DF
:10278000DF017093E0018093E1019093E2010C94EA
:10279000D70F60E070E0CB010C94BD130F931F9333
:1027A00041E050E060E070E08A019B0104C0000F4E
:1027B000111F221F331F8A95D2F7C901B8011F913B
:1027C0000F910C94BD130F931F9341E050E060E014
:1027D00070E004C0440F551F661F771F8A95D2F71B
:1027E0008091DF019091E001A091E101B091E201BF
:1027F0008A019B01082B192B2A2B3B2BC901B801FD
:102800001F910F910C94BD130F931F9341E050E063
:1028100060E070E004C0440F551F661F771F8A9563
:10282000D2F7CB01BA016095709580959095009193
:10283000DF011091E0012091E1013091E20160237C
:102840007123822393231F910F910C94BD130F9337
:102850001F9341E050E060E070E004C0440F551F5A
:10286000661F771F8A95D2F78091DF019091E00172
:10287000A091E101B091E2018A019B01082719278B
:102880002A273B27C901B8011F910F910C94BD1352
:102890000F931F930091DF011091E0012091E1015E
:1028A0003091E201602B712B822B932B1F910F91A2
:1028B0000C94BD130F931F930091DF011091E00161
:1028C0002091E1013091E20160237123822393235F
:1028D0001F910F910C94BD130F931F930091DF0173
:1028E0001091E0012091E1013091E2016027712710
:1028F000822793271F910F910C94BD130895E92F00
:10290000EE0FEE0F9E0F890F982F977041E001C0D8
:10291000440F9A95EAF786958695869595E0899F66
:10292000F0011124E553FE4F30E020E070E05191BA
:10293000DF011197CB01022E02C0969587950A946C
:10294000E2F7817081958527842385278C932F5FFB
:102950003F4F2530310559F70895E92FEE0FEE0F5F
:102960009E0F890F982F977086958695869525E0FE
:10297000829FF0011124E553FE4F50E040E080E0DB
:10298000219130E0092E02C0369527950A94E2F78E
:1029900021703327042E01C0220F0A94EAF7822BFC
:1029A0004F5F5F4F4530510559F70895BF92CF9261
:1029B000DF92EF92FF920F931F93CF93DF938C01DF
:1029C000C090DF01D090E001E090E101F090E201E1
:1029D0008091E3019091E401A091E501B091E601BD
:1029E000C82AD92AEA2AFB2ACFE1D0E0BC2ED70197
:1029F000C6010C2E04C0B695A795979587950A94A5
:102A0000D2F780FD0EC0219788F7B12C8B2DDF9176
:102A1000CF911F910F91FF90EF90DF90CF90BF90DB
:102A20000895B8018C2F0E942F04019761F3EECF17
:102A3000CF93DF93EC010E94D614BE01DF91CF91BA
:102A40000C942F041F93CF93DF93EB01909192018D
:102A5000992331F0CB01DF91CF911F910C94181580
:102A6000882379F0CB010E94D614182F682FCE014D
:102A70000E947F14BE01812FDF91CF911F910C9492
:102A80002F04CB010E94AD14182FF4CF682F809132
:102A90000301909104010C940F17682F809103019A
:102AA000909104010C9411178091030190910401FD
:102AB0000C9413178091E701859585958595089568
:102AC0008091E701877008959091E701977081E008
:102AD00009F480E008958091F30108959091F30145
:102AE000892B8093F301089580959091F3019823A9
:102AF0009093F30108951092F30108959091F201DB
:102B0000892B8093F201089580959091F20198238A
:102B10009093F20108951092F20108959091F101BD
:102B2000892B8093F101089580959091F10198236C
:102B30009093F10108951092F10108958091E801B8
:102B4000089508950C94A1159091E801981721F02B
:102B50008093E8010C94A21508958091E8018823E0
:102B600029F01092E80180E00C94A2150895E091FC
:102B70000301F09104018091F3018083E09103014E
:102B8000F091040180819091F201892B8083E09182
:102B90000301F091040180819091F101892B8083E0
:102BA0009091E801992381F0E0910301F0910401F3
:102BB0008081892B808380910301909104010E9480
:102BC000C71681110E94AD158091030190910401F7
:102BD0000C947E0B08950C94EA1598E0899F90015F
:102BE0001124622B6093E7010E94E3138091E701B7
:102BF0008595859585950C94EB151092E70180E0FD
:102C00000C94EB159091E701809589238093E7015F
:102C1000282F277071F4282F082E000C330B9217E1
:102C2000130639F08595859585950E9404140C94BA
:102C3000FD15089590E080E00E94241F21E08C3E65
:102C40009E4F09F020E0822F089582E090E00C94DE
:102C50001C1F83E090E00C941C1FCF9384E090E055
:102C60000E941C1FC82F81E290E00E941C1F982F19
:102C70008C2FCF910895CF93C92F682F84E090E0D7
:102C80000E942A1F6C2F81E290E0CF910C942A1FA2
:102C900086E090E00C941C1F682F86E090E00C9476
:102CA0002A1FAB01BC018FE090E00C943C1FAB01EC
:102CB000BC0183E190E00C943C1F60E070E0CB012C
:102CC0000C94571660E070E0CB010E9451160C94F2
:102CD0005D166CEE7EEF90E080E00E94481F60E0A1
:102CE00082E090E00E942A1F60E083E090E00E9472
:102CF0002A1F1092E3011092E4011092E501109254
:102D0000E60160E084E090E00E942A1F60E081E23A
:102D100090E00E942A1F60E085E090E00E942A1F58
:102D200060E086E090E00E942A1F6FEF87E090E06D
:102D30000E942A1F40E050E0BA0188E090E00E9423
:102D40003C1F60E08DE090E00E942A1F40E050E0D0
:102D5000BA0188E190E00E943C1F60E087E190E0CA
:102D60000E942A1F40E050E0BA018CE190E00E94EE
:102D70003C1F60E080E290E00E942A1F0C946216E3
:102D80000C946916682F8EE090E00C942A1F9C0129
:102D90002E5F3F4FAC01485F5F4F80E0241735073F
:102DA00009F40895F90191919F019923B9F38F5F77
:102DB000F5CF662349F0FC0132960896219126173B
:102DC00029F0E817F907D1F780E0089581E0089528
:102DD0009C01FC0132969FEF80E04191461751F033
:102DE0009F3F19F4411101C0982F8F5F8630A9F7DA
:102DF0009F3F09F40895290F311D97FD3A95F90178
:102E000062830895FC01329608962191261303C02F
:102E1000DF0111971C92E817F907B9F708950C9490
:102E2000E8160C940217029626E0FC0111922A95EE
:102E3000E9F70895089508950C941B170E941C1734
:102E400080911602843061F11092F50188E190E0E2
:102E500020E40FB6F894A895809360000FBE2093ED
:102E6000600080E00E94AB0880E00E94B5030E94F1
:102E70001C1783B7817F846083BF83B7816083BF62
:102E80007894889583B78E7F83BF0FB6F894A89502
:102E900080916000886180936000109260000FBE96
:102EA00008950895CF930E941A170E9478060E94F1
:102EB0005117C0E08C2F0E941906811105C0CF5F09
:102EC000C530C1F7CF91089581E0FCCF08950C94EF
:102ED00066170E94E90F0E9479070E94720B0E94F8
:102EE000B5030C9467171F921FB61F9211248F937E
:102EF0009F93AF93BF938091F501811113C080918F
:102F00000C0290910D02A0910E02B0910F02419619
:102F1000A11DB11D80930C0290930D02A0930E028F
:102F2000B0930F02BF91AF919F918F911F901FBEE1
:102F30001F90189582E084BD93E095BD9AEF97BDF0
:102F400080936E0008952FB7F89480910C029091B1
:102F50000D02A0910E02B0910F022FBF08959C01A7
:102F60004FB7F89480910C0290910D02A0910E023F
:102F7000B0910F024FBF821B930B089578941F925C
:102F80001FB61F9211248F939F93AF93BF9380918D
:102F90000C0290910D02A0910E02B0910F020196C9
:102FA000A11DB11D80930C0290930D02A0930E02FF
:102FB000B0930F02BF91AF919F918F911F901FBE51
:102FC0001F90189587E797E7909301088093000872
:102FD00088E19AE00FB6F894A895809360000FBE40
:102FE00090936000FFCF0E941A16811102C00E94C8
:102FF000C0160E9425168093F4010E942D1690930E
:103000001102809310020E942916682F70E090E050
:1030100080E00C9481138091FE0108950895CF9370
:10302000DF9300D00F92CDB7DEB7909116029430A7
:1030300019F589837B836A8382E08093E9008FEFAF
:103040009091E800815095FD06C095ED9A95F1F7B5
:1030500000008111F5CF8091E80085FF0DC050E0A0
:1030600040E063E070E0CE0101960E94251A809155
:10307000E8008E778093E8000F900F900F90DF911B
:10308000CF910895CF93DF93EC010E94081A82300C
:1030900011F0843031F4BE0184E0DF91CF910C94C3
:1030A0000F18DF91CF910895BC0183E00C940F18A5
:1030B000CF93DF93EC010E94081A823011F0843024
:1030C00039F581E08093E9008FEF9091E80081501D
:1030D00095FD06C095ED9A95F1F700008111F5CFA9
:1030E0008091E80085FF14C050E040E068E070E0A7
:1030F000CE010E94251A8091E8008E778093E80027
:1031000088E0FE01A6EFB1E001900D928A95E1F70B
:10311000DF91CF91089580911502811109C00E941D
:10312000B51B0E94121C8091E20084608093E20033
:103130000895109215020895089508950C94691742
:1031400042E061EC81E00E94311B42E261EC82E0EE
:103150000C94311B80911802833009F45FC030F465
:103160008130C1F1823009F49BC008958A3009F49E
:1031700087C08B3009F46DC0893009F04EC0809152
:103180001702813209F049C080911B0290911C0204
:10319000029708F042C08091E800877F8093E800A2
:1031A0008091E80082FF35C09091F3008091F20099
:1031B000029729F48091F1008B7F813021F4809176
:1031C000F1008093FE018091E8008B778093E80006
:1031D0000C94651B80911702813AF9F48091E80004
:1031E000877F8093E80080911B0290911C02892BBD
:1031F00061F468E086EF91E070E00E94741A8091BB
:10320000E8008B778093E800089560E090E080E02C
:10321000F3CF809116028111C3CF089580911702D8
:10322000813AD9F780911B0290911C02892BA9F752
:103230008091E800877F8093E8008091E80080FF1C
:10324000FCCF80910F018093F1008091E8008E7790
:10325000BDCF80911702813201F780911B029091BE
:103260001C02892BD1F68091E800877F8093E800CB
:103270000E94651B8091190280930F010C94E90F45
:1032800080911702813249F68091E800877F809310
:10329000E8000E94651B80911A028093FF01089547
:1032A00080911702813A09F0B8CF8091E800877FBA
:1032B0008093E8008091E80080FFFCCF8091FF01BF
:1032C000C2CF84B7877F84BF0FB6F894A89580914A
:1032D0006000886180936000109260000FBE80E8FB
:1032E00090E00FB6F89480936100909361000FBE58
:1032F0000E94C30B0E94B51B0E94121C8091E20029
:1033000084608093E20078940E949B1E0E94CD0B03
:1033100085E091E00E946D0B80911602853019F0D6
:103320000E94D70BF9CF0E941E17809114028823A8
:1033300099F30E945217882379F30E940F1AECCF59
:103340000C94A219292F33272330310519F168F481
:103350002130310509F44AC02230310509F44BC04F
:1033600090E080E030E020E028C02132310579F1A2
:1033700022323105A9F780E490E02CEB33E06115AF
:103380007105D9F082E390E02AE833E061307105FD
:10339000A1F0E6CF99278130910599F0009741F08F
:1033A0008230910589F00397D9F6EFEFF2E002C081
:1033B000E9E3F3E0849190E09F01FA0131832083F7
:1033C0000895EFE1F3E0F6CFE5E0F3E0F3CF89E035
:1033D00090E02FE433E06115710579F389E090E026
:1033E00028E633E06130710541F3BACF82E190E025
:1033F00028E733E0E2CF8BE390E02DE333E0DDCF4D
:1034000080911602843011F482E0089581E00895DD
:1034100080910002811102C00C94001A089580E18D
:1034200089BD82E189BD09B400FEFDCF8091D8003D
:103430008F7D8093D8008091E00082608093E000CF
:103440008091E00081FDFCCF0895AF92BF92CF92B2
:10345000DF92FF920F931F93CF93DF936C01EB01E9
:103460008A010E94841BF82E811123C001151105C9
:1034700039F0F80180819181C81BD90BC80ED91E83
:10348000B12CA12C2097A9F08091E80085FD22C0E5
:103490008091E8008E778093E80001151105A1F076
:1034A000F80180819181A80EB91EB182A08285E0C9
:1034B000F82E8F2DDF91CF911F910F91FF90DF900C
:1034C000CF90BF90AF9008950E94841B8823D1F2C3
:1034D000F82EEFCFF60181916F018093F1002197D3
:1034E000FFEFAF1ABF0ACECFFC0180911D02909171
:1034F0001E0286179707A0F06115710529F49091B7
:10350000E8009E779093E80090E06115710551F412
:10351000911108C08091E80082FF34C080E00895D6
:10352000BC01F2CF809116028823C1F18530C1F130
:103530008091E80083FD30C08091E80082FDEACFF1
:103540008091E80080FFE1CF8091F3002091F200AC
:10355000382F6115710519F02830310558F091E0C8
:103560002830310509F090E02091E8002E77209373
:10357000E800CBCF81918093F100615071092F5FFA
:103580003F4FE7CF80911602882341F0853041F00C
:103590008091E80083FFBECF81E0089582E0089526
:1035A00083E00895FC0180911D0290911E02861710
:1035B0009707A0F06115710529F48091E8008E77D6
:1035C0008093E80090E06115710551F4911108C0F5
:1035D0008091E80082FF35C080E00895BC01F2CF01
:1035E000809116028823C9F18530C9F18091E800E5
:1035F00083FD31C08091E80082FDEACF8091E80030
:1036000080FFE1CF8091F3002091F200382F611507
:10361000710519F02830310558F091E02830310556
:1036200009F090E08091E8008E778093E800CBCF9E
:1036300084918093F1003196615071092F5F3F4F63
:10364000E6CF80911602882341F0853041F08091C9
:10365000E80083FFBDCF81E0089582E0089583E014
:103660000895982F973028F08F708093E90081E0BB
:1036700008959093E900242F762F50E0981731F0A9
:103680007091EC002091ED005091F00021FD02C0FE
:103690009F5FE8CF3091EB003E7F3093EB0030919D
:1036A000ED003D7F3093ED003091EB0031603093C1
:1036B000EB007093EC002093ED005093F00020910C
:1036C000EE0027FDE5CF80E008958091170287FF87
:1036D00013C08091E80082FF06C08091E8008B77DC
:1036E0008093E80004C0809116028111F2CF089502
:1036F000809116028823D9F38091E80080FFF8CFEB
:103700008091E8008E77ECCF2091E4003091E500C5
:1037100095E6A9012091EC00822F817020FF06C060
:103720008091E80080FF06C080E008952091E800C5
:1037300022FD1AC080911602882389F0853089F015
:103740008091EB0085FD0FC02091E4003091E500F1
:1037500042175307F9F29150E1F684E0089582E0B0
:10376000089583E0089581E008950E94231C0E943B
:103770002B1CE0EEF0E0808181608083E8EDF0E0DA
:1037800080818F77808319BCA7EDB0E08C918E7F0C
:103790008C9380818F7E80831092150208950F9301
:1037A0001F93CF93DF930E94231C0E942B1CC8ED14
:1037B000D0E088818F77888388818068888388813A
:1037C0008F7D888319BC10921602109212021092FB
:1037D00014021092130200EE10E0F80180818B7F3A
:1037E000808388818160888342E060E080E00E947D
:1037F000311BE1EEF0E080818E7F8083E2EEF0E02D
:10380000808181608083808188608083F8018081ED
:103810008E7F8083888180618883DF91CF911F9123
:103820000F910895E8EDF0E080818F7E8083E7EDD1
:10383000F0E080818160808384E082BF81E08093BA
:1038400015020C94CF1BE8EDF0E080818E7F808321
:103850001092E20008951092DA001092E1000895AB
:103860001F920F920FB60F9211242F933F934F93F5
:103870005F936F937F938F939F93AF93BF93EF93D8
:10388000FF938091E10082FF0BC08091E20082FFF4
:1038900007C08091E1008B7F8093E1000E949A1E17
:1038A0008091DA0080FF19C08091D80080FF15C098
:1038B0008091DA008E7F8093DA008091D90080FFBA
:1038C00096C080E189BD82E189BD09B400FEFDCFCB
:1038D00081E0809316020E948B188091E10080FFA6
:1038E00019C08091E20080FF15C08091E2008E7FB8
:1038F0008093E2008091E20080618093E2008091F9
:10390000D80080628093D80019BC85E080931602AD
:103910000E949D188091E10084FF2BC08091E200FD
:1039200084FF27C080E189BD82E189BD89B5982FD8
:10393000917080FFFBCF8091D8008F7D8093D8005D
:103940008091E1008F7E8093E1008091E2008F7E84
:103950008093E2008091E20081608093E200809198
:103960001202882309F449C084E0809316020E9461
:103970009E188091E10083FF29C08091E20083FFBF
:1039800025C08091E100877F8093E10082E08093F1
:103990001602109212028091E1008E7F8093E10066
:1039A0008091E2008E7F8093E2008091E20080614E
:1039B0008093E20042E060E080E00E94311B809151
:1039C000F00088608093F0000E949C18FF91EF91B6
:1039D000BF91AF919F918F917F916F915F914F9127
:1039E0003F912F910F900FBE0F901F90189519BC0B
:1039F000109216020E94991870CF8091E30087FD03
:103A000093E090931602B3CF1F920F920FB60F92CE
:103A100011242F933F934F935F936F937F938F93D3
:103A20009F93AF93BF93CF93DF93EF93FF93D09187
:103A3000E900DF708091EC00C82FC17080FDC0E804
:103A40001092E9008091F000877F8093F0007894D5
:103A50000E94481D1092E9008091F00088608093D8
:103A6000F000CD2BCF70C093E900FF91EF91DF9173
:103A7000CF91BF91AF919F918F917F916F915F9106
:103A80004F913F912F910F900FBE0F901F9018955F
:103A90001F93CF93DF93CDB7DEB7AA970FB6F894F5
:103AA000DEBF0FBECDBF87E192E02091F100FC01A7
:103AB0002193CF01F2E08F319F07B9F70E94AA1836
:103AC0008091E80083FF1EC1809117029091180237
:103AD0009A3008F017C1E92FF0E0EB57F04E0C9444
:103AE000FC1E803899F0823809F00CC180911B02CD
:103AF0008F70873008F006C18093E9008091EB0059
:103B000085FB882780F91092E90006C08091130296
:103B100090911402911182609091E800977F9093A8
:103B2000E8008093F1001092F1008091E8008E7718
:103B3000E5C0882309F4D3C0823009F0E3C0809146
:103B400019028111D6C080911B028F702FEF280FB0
:103B5000263008F0D7C08093E9002091EB0020FFC9
:103B6000C8C0933031F48091EB0080628093EB0009
:103B7000C0C09091EB0090619093EB0021E030E0A9
:103B800001C0220F8A95EAF72093EA001092EA001A
:103B90008091EB008860EACF8111B4C010911902C6
:103BA0001F778091E3008078812B8093E3008091E0
:103BB000E800877F8093E8000E94651B8091E80001
:103BC00080FFFCCF8091E30080688093E30082E077
:103BD000111183E08093160295C08058823008F05E
:103BE00091C08091190290911A028C3D23E09207B6
:103BF000A1F583E08A838AE289834FB7F894DE01D6
:103C0000139620E03EE051E2E32FF0E0509357009E
:103C1000E49120FF03C0E295EF703F5FEF708E2FBD
:103C200090E0EA30C0F0C7968D939D932F5F2431CA
:103C300059F74FBF8091E800877F8093E8006AE2E0
:103C400070E0CE0101960E94741A8091E8008B7793
:103C50008093E80057C0C096E7CF60911B02709137
:103C60001C02AE014F5F5F4F0E94A019BC01892B5F
:103C700009F448C09091E800977F9093E80089810B
:103C80009A810E94D21AE1CF8038E1F58091E80054
:103C9000877F8093E800809112028093F10045CFE6
:103CA000811130C090911902923060F58091E80046
:103CB000877F8093E800909312020E94651B809199
:103CC0001202882311F084E005C08091E30087FD93
:103CD000FACF81E0809316020E94A01813C0809151
:103CE0001902813079F481E0933009F080E080930B
:103CF00014021092E9008091E800877F8093E80029
:103D00000E94651B8091E80083FF0AC08091E80053
:103D1000877F8093E8008091EB0080628093EB00C6
:103D2000AA960FB6F894DEBF0FBECDBFDF91CF913C
:103D30001F9108950895CF93809116028823A1F0D2
:103D4000C091E900CF709091EC00892F817090FDB7
:103D500080E8C82B1092E9008091E80083FD0E9462
:103D6000481DCF70C093E900CF910895DB018F9378
:103D70009F930E94111FBF91AF91A29F800D911D33
:103D8000A39F900DB29F900D11240895AA1BBB1BF9
:103D900051E107C0AA1FBB1FA617B70710F0A61B4B
:103DA000B70B881F991F5A95A9F780959095BC016C
:103DB000CD010895A1E21A2EAA1BBB1BFD010DC067
:103DC000AA1FBB1FEE1FFF1FA217B307E407F507CB
:103DD00020F0A21BB30BE40BF50B661F771F881FA7
:103DE000991F1A9469F760957095809590959B013D
:103DF000AC01BD01CF010895EE0FFF1F0590F491B6
:103E0000E02D0994A29FB001B39FC001A39F700D44
:103E1000811D1124911DB29F700D811D1124911DD2
:103E200008950E94021FA59F900DB49F900DA49F1E
:103E3000800D911D11240895F999FECF92BD81BD89
:103E4000F89A992780B50895A8E1B0E042E050E0E3
:103E50000C94501F262FF999FECF92BD81BDF89A80
:103E6000019700B4021639F01FBA20BD0FB6F894BE
:103E7000FA9AF99A0FBE08950396272F0E942B1FD6
:103E80000E942A1F252F0E942B1F242F0C942B1FCA
:103E90000196272F0E942B1F0C942A1FDC01CB01B7
:103EA000FC01F999FECF06C0F2BDE1BDF89A31964A
:103EB00000B40D9241505040B8F70895F894FFCFE8
:103EC0005108560858085B085E0861086408CD0D63
:103ED000CD0D250E250E770EFA0DFA0DFA0D930E67
:103EE0001F0F2E0F2E0F8A0FFA0DFA0D930FF80FDA
:103EF000F80F011001100310011001100110F80F4C
:103F0000F80F0810011001100810711D991D821E74
:0E3F1000991D821ECC1DED1D821E441E501EEA
:103F1E00010106E9010B1858180E18541842180121
:103F2E00E200E900EA00B500B600B700CD0083015B
:103F3E00CC008A019201940121022302240225025F
:103F4E00260227022A02B300B4006F00700081829D
:103F5E008390943133003536323400E200E900EAC2
:103F6E0000B500B600B700CD008301CC008A0192E7
:103F7E000194012102230224022502260227022A8D
:0C3F8E0002B300B4006F00700081828359
:00000001FF
